:020000040800F2
:10000000C8080020CD01000859180008551700083D
:10001000551800087D020008AD1D00080000000012
:10002000000000000000000000000000451900086A
:10003000A104000800000000191900089D1900081B
:10004000E7010008E7010008E7010008E7010008F0
:10005000E7010008E7010008E7010008E7010008E0
:10006000E7010008E7010008E7010008E7010008D0
:10007000E7010008E7010008E7010008E7010008C0
:10008000E7010008E7010008E7010008E7010008B0
:10009000E7010008E7010008E7010008E7010008A0
:1000A000E7010008E7010008E7010008E701000890
:1000B000E7010008E7010008E7010008E701000880
:1000C000E7010008E7010008E7010008E701000870
:1000D000E70100086D1D0008E7010008E7010008BE
:1000E000E7010008E7010008E7010008E701000850
:1000F000E7010008E7010008E7010008E701000840
:10010000E7010008E7010008E7010008E70100082F
:10011000E7010008E7010008E7010008E70100081F
:10012000E7010008E7010008E7010008E70100080F
:1001300000F002F800F03AF80AA090E8000C8244BF
:100140008344AAF10107DA4501D100F02FF8AFF29C
:10015000090EBAE80F0013F0010F18BFFB1A43F0A5
:1001600001031847C02D0000E02D0000103A24BF05
:1001700078C878C1FAD8520724BF30C830C144BF0C
:1001800004680C607047000000230024002500264E
:10019000103A28BF78C1FBD8520728BF30C148BFEA
:1001A0000B6070471FB51FBD10B510BD00F033F8D0
:1001B0001146FFF7F7FF01F023FE00F051F803B4FA
:1001C000FFF7F2FF03BC01F00FFE00000948804773
:1001D00009480047FEE7FEE7FEE7FEE7FEE7FEE729
:1001E000FEE7FEE7FEE7FEE704480549054A064B41
:1001F00070470000A519000831010008C80200205E
:10020000C8080020C8040020C804002070477047B8
:10021000704770477047754600F02CF8AE460500F1
:100220006946534620F00700854618B020B5FFF711
:10023000DBFFBDE820404FF000064FF000074FF015
:1002400000084FF0000B21F00701AC46ACE8C009F4
:10025000ACE8C009ACE8C009ACE8C0098D467047FD
:1002600010B50446AFF300802046BDE81040FFF70C
:10027000A6BF0000004870476802002000BFFEE7EC
:1002800070B503460C464FF6FF70114610E0665CF1
:100290007040002509E000F0010626B140104AF246
:1002A0000106704000E040106D1C082DF3DB491C76
:1002B0009942ECDB70BD00002DE9F04FB2B08146F1
:1002C0008A461746BAF1000F16D0002011E0704997
:1002D000095C602906DD6E49095C57396D4A42F8B0
:1002E000201005E06A49095C30396A4A42F820105A
:1002F000401C4845EBDBC8E0B846B8F1000001DB24
:10030000014600E04142884600260AE00A2098FBA8
:10031000F0F100FB11804DF826000A2098FBF0F860
:10032000761CB8F1010FF1DA761C0A2096FBF0F189
:1003300000FB11603030584948710A2E05DB0A2055
:1003400096FBF0F03030087102E03020524908711D
:10035000002F03DA32205049887102E031204E49E3
:100360008871A6F1020B072507E01DF82B0030303D
:1003700049494855ABF1010B6D1CBBF1000FF4DA94
:10038000062245492846FFF77BFF0446E11704EBA8
:1003900011510922B2EB213F08DA2046E11704EBA4
:1003A0001151091357313C4A515507E02046E117D6
:1003B00004EB115109133031374A51552046E117EA
:1003C00004EB11510913A4EB0134E11704EB1161A3
:1003D0000922B2EB212F0ADA2046E11704EB116162
:1003E00009125731CAB22C4B691C5A5409E02046F5
:1003F000E11704EB116109123031CAB2264B691CB6
:100400005A542046E11704EB11610912A4EB0124B0
:10041000E11704EB11710922B2EB211F0ADA204621
:10042000E11704EB117109115731CAB21A4BA91C1B
:100430005A5409E02046E11704EB117109113031DB
:10044000CAB2154BA91C5A542046E11704EB11718E
:100450000911A4EB0114092C06DD04F15700C1B207
:100460000D4AE81C115405E004F13000C1B20A4AFB
:10047000E81C11540D21084A281D11540A21681D39
:100480001154A81D0549086000BF32B0BDE8F08FC7
:1004900060010020680000201000002044000020BF
:1004A0007047000070B50446002594F8210002282A
:1004B00003D00420A0630125C1E02068006820F07B
:1004C0000E00216808602068006820F001002168A3
:1004D00008605C492068884252D95A4978392068B6
:1004E000884201D1012047E056496439206888429A
:1004F00001D1102040E0534950392068884201D191
:10050000801539E04F493C392068884201D1801478
:1005100032E04C4928392068884202D14FF48030BB
:100520002AE0484914392068884202D14FF48010EB
:1005300022E044492068884201D140041CE042493D
:100540002068884201D1012016E03F49143120681B
:10055000884201D110200FE03B49283120688842B1
:1005600001D1801508E038493C312068884201D12A
:10057000801401E04FF480303349091F086051E0D6
:10058000304978392068884201D1012047E02D495F
:1005900064392068884201D1102040E0294950394F
:1005A0002068884201D1801539E026493C3920680D
:1005B000884201D1801432E02249283920688842DB
:1005C00002D14FF480302AE01E4914392068884255
:1005D00002D14FF4801022E01A492068884201D1EC
:1005E00040041CE018492068884201D1012016E02F
:1005F000154914312068884201D110200FE01249BA
:1006000028312068884201D1801508E00E493C312C
:100610002068884201D1801401E04FF480300949FC
:1006200080394860012084F8210000BF002084F850
:10063000200000BF606B10B12046616B88472846E0
:1006400070BD0000800002400804024070B50446FE
:1006500000F0B6F906462546681C10B1044800783B
:10066000054400BF00F0ACF9801BA842FAD370BD6E
:10067000580000202DE9F847024600239C467BE104
:100680004FF0010808FA03F4D1F8008008EA0400EA
:10069000A0427DD1DFF8F4A2D1F80480A8EB0A09CA
:1006A000D0453AD014DCB8F1030F50D009DCB8F1D2
:1006B000000F31D0B8F1010F1CD0B8F1020F49D1B1
:1006C00020E0B8F1110F18D0B8F1120F42D11EE09E
:1006D000B9F5881F25D006DCB9F5803F20D0B9F5E3
:1006E000801F37D11AE0B9F5001F18D0B9F5041FE3
:1006F00030D117E0D1F80CC02DE0D1F80C8008F112
:10070000040C28E0D1F80C8008F1080C23E0D1F8A3
:100710000C8008F10C0C1EE000BF00BF00BF00BF42
:1007200000BF00BFD1F80880B8F1000F02D14FF030
:10073000040C0BE0D1F80880B8F1010F03D14FF0A1
:10074000080C146102E04FF0080C546103E04FF014
:10075000000C00E000BF00BFFF2801D8904601E078
:1007600002F104084646FF2802D84FEA830803E056
:10077000A3F108084FEA88084746D6F800804FF0F2
:100780000F0909FA07F928EA09080CFA07F900E045
:100790007AE048EA0908C6F80080D1F8048008F039
:1007A0008058B8F1805F6FD100BFDFF8E481D8F8DE
:1007B000188048F00108DFF8D891C9F81880C846B9
:1007C000D8F8188008F00108CDF8008000BF00BFFD
:1007D0004FEAB9384FEA930958F829504FEA83781D
:1007E0004FEA18794FF00F0808FA09F825EA0805CA
:1007F000DFF8A081424502D14FF0000824E0DFF885
:100800009881424502D14FF001081DE0DFF88C814C
:10081000424502D14FF0020816E0DFF884814245DC
:1008200002D14FF003080FE0DFF87881424502D192
:100830004FF0040808E0DFF87081424502D14FF024
:10084000050801E04FF006084FEA83794FEA19796D
:1008500008FA09F848EA0505DFF850814FEA9309DC
:1008600048F82950D1F8048008F48038B8F5803F62
:100870000BD1DFF83C81D8F8008048EA0008DFF8A7
:100880003091C9F800800AE075E0DFF82481D8F8DB
:10089000008028EA0008DFF81891C9F80080D1F834
:1008A000048008F40038B8F5003F0ED1DFF800816D
:1008B00008F10408D8F8008048EA0008DFF8F09052
:1008C00009F10409C9F800800DE0DFF8E48008F1BF
:1008D0000408D8F8008028EA0008DFF8D49009F16D
:1008E0000409C9F80080D1F8048008F48018B8F52C
:1008F000801F0ED1DFF8B88008F10808D8F8008012
:1009000048EA0008DFF8A89009F10809C9F8008052
:100910000DE0DFF89C8008F10808D8F8008028EA8C
:100920000008DFF88C9009F10809C9F80080D1F8B7
:10093000048008F40018B8F5001F0ED1DFF87080AD
:1009400008F10C08D8F8008048EA0008DFF8609049
:1009500009F10C09C9F800800DE0DFF8548008F1B6
:100960000C08D8F8008028EA0008DFF8449009F164
:100970000C09C9F800805B1CD1F8008028FA03F844
:10098000B8F1000F7FF47CAEBDE8F88700001110CD
:100990000010024000080140000C0140001001401E
:1009A0000014014000180140001C014008000140F3
:1009B000000401400AB1016101E00B0403617047CA
:1009C000014800687047000050000020034800689C
:1009D0000349097808440149086070475000002025
:1009E0005800002010B50848006840F01000064983
:1009F0000860052000F080F80F2000F007F800F0F4
:100A00002BF8002010BD00000020024070B5044605
:100A10000E4800784FF47A71B1FBF0F00C49096888
:100A2000B1FBF0F5284600F0F7FB08B1012070BDDE
:100A3000102C07D200222146501E00F01EF8054857
:100A4000046001E00120F2E70020F0E758000020F8
:100A50004C00002054000020704701460846002842
:100A600009DB00F01F0301229A4043099B0003F1B8
:100A7000E023C3F8002100BF70472DE9F05F8046F6
:100A80000D461646002701F093F9074639462A46D7
:100A9000334601F00700C0F1070ABAF1040F02D98A
:100AA0004FF0040A01E0C0F1070AD14600F1040A40
:100AB000BAF1070F02D24FF0000A01E0A0F1030AD9
:100AC000D4464FF0010A0AFA09FAAAF1010A0AEA21
:100AD000020A0AFA0CFA4FF0010B0BFA0CFBABF10D
:100AE000010B0BEA030B4AEA0B042146404601F0D6
:100AF00067F9BDE8F09F000000BF00F00702064B59
:100B000019684FF6FF031940044B0B4343EA0221D7
:100B1000014B196000BF70470CED00E00000FA05C2
:100B200070B504460D460CB9012070BD5A480068E6
:100B300000F00700A8420ED25748006820F00700D6
:100B40002843554908600846006800F00700A8429D
:100B500001D00120E9E7207800F0020002281DD131
:100B6000207800F00400042805D14C48406840F487
:100B7000E0604A494860207800F00800082805D164
:100B80004648406840F460504449486043484068E3
:100B900020F0F000A168084340494860207800F048
:100BA000010078B36068012806D13C48006800F471
:100BB000003090B90120B8E76068022806D13748B4
:100BC000006800F0007040B90120AEE733480068CB
:100BD00000F0020008B90120A7E73048406820F083
:100BE0000300616808432D494860FFF7E9FE0646A7
:100BF00009E0FFF7E5FE801B41F28831884202D907
:100C0000032092E707E02548406800F00C00616887
:100C1000B0EB810FEDD12048006800F00700A8423A
:100C20000ED91D48006820F0070028431A490860C3
:100C30000846006800F00700A84201D0012074E7D0
:100C4000207800F00400042807D11448406820F4FC
:100C5000E060E168084311494860207800F008002E
:100C6000082808D10D48406820F46050216940EA06
:100C7000C1000A49486000F03FF808494968C1F3DB
:100C80000311074A515CC8400649086006480068DD
:100C9000FFF7BCFE002048E70020024000100240A1
:100CA0000A2F00084C000020540000200148006872
:100CB000704700004C00002000B5FFF7F7FF044923
:100CC0004968C1F30221034A515CC84000BD0000DD
:100CD000001002401A2F000800B5FFF7E7FF044993
:100CE0004968C1F3C221034A515CC84000BD0000FD
:100CF000001002401A2F0008F0B585B00FF26C0CFE
:100D00009CE8E01001A8A0E8E0101CA52D68009563
:100D100000210022002300240020194D696801F001
:100D20000C05F5B1042D02D0082D19D101E01548AC
:100D300019E001ADC1F38346AC5D01F4803555B1D6
:100D40000F4D6D68C5F340451DF805200D4D6543F9
:100D5000B5FBF2F302E00C4D04FB05F3184602E08C
:100D600000BF084800BF00BF05B0F0BD0203040586
:100D7000060708090A0B0C0D0E0F101001020000E7
:100D80000010024000127A0000093D00F8B5044648
:100D90000CB90120F8BD207800F00100002878D0BF
:100DA000F848406800F00C0004280CD0F548406872
:100DB00000F00C00082811D1F248406800F480309F
:100DC000B0F5803F0AD1EF48006800F400300028F9
:100DD0005FD0606800285CD10120DBE700BF60685D
:100DE000B0F5803F06D1E748006840F48030E5491F
:100DF000086028E0606858B9E248006820F4803054
:100E0000E04908600846006820F4802008601AE085
:100E10006068B0F5A02F0BD1DA48006840F480205C
:100E2000D84908600846006840F4803008600AE04D
:100E3000D448006820F48030D24908600846006831
:100E400020F48020086000BF606888B1FFF7B8FD1B
:100E5000054606E0FFF7B4FD401B642801D90320D6
:100E600098E7C848006800F400300028F2D010E08D
:100E7000FFF7A6FD054606E0FFF7A2FD401B64282C
:100E800001D9032086E7BF48006800F4003000283D
:100E9000F2D1207800F00200022857D1B94840680A
:100EA00000F00C0050B1B748406800F00C00082872
:100EB00018D1B448406800F4803098B9B14800684F
:100EC00000F0020020B12069012801D0012061E773
:100ED000AC48006820F0F800616940EAC100A94907
:100EE000086033E02069E8B10120A7490860FFF7F6
:100EF00067FD054606E0FFF763FD401B022801D9A8
:100F0000032047E79F48006800F002000028F2D065
:100F10009C48006820F0F800616940EAC1009949E6
:100F2000086013E0002098490860FFF749FD054676
:100F300006E0FFF745FD401B022801D9032029E701
:100F40009048006800F002000028F2D1207800F0FC
:100F5000080008282DD1A069B8B101208B4908608C
:100F6000FFF72EFD054606E0FFF72AFD401B02288D
:100F700001D903200EE78348406A00F002000028F0
:100F8000F2D0012000F0CAFC13E000207F49086085
:100F9000FFF716FD054606E0FFF712FD401B02288D
:100FA00001D90320F6E67748406A00F002000028E5
:100FB000F2D1207800F00400042873D10027714892
:100FC000C06900F0805070B900BF6E48C06940F041
:100FD00080506C49C8610846C06900F0805000909C
:100FE00000BF00BF01276A48006800F48070B0B9F4
:100FF0006748006840F4807065490860FFF7E0FCCE
:10100000054606E0FFF7DCFC401B642801D90320FD
:10101000C0E65F48006800F480700028F2D000BF8E
:10102000E068012806D15748006A40F001005549A0
:10103000086227E0E06858B95248006A20F00100D1
:10104000504908620846006A20F00400086219E06E
:10105000E06805280BD14B48006A40F0040049497C
:1010600008620846006A40F0010008620AE045484C
:10107000006A20F00100434908620846006A20F037
:101080000400086200BFE068A0B1FFF799FC0546C4
:1010900009E0FFF795FC401B41F28831884202D9F4
:1010A000032077E622E03748006A00F002000028BB
:1010B000EFD012E0FFF784FC054608E0FFF780FC64
:1010C000401B41F28831884201D9032062E62D4855
:1010D000006A00F002000028F0D1012F05D1294854
:1010E000C06920F080502749C86100BFE069C8B3DB
:1010F0002448406800F00C00082860D0E06902280D
:1011000048D1002020490866FFF75AFC054606E052
:10111000FFF756FC401B022801D903203AE6194884
:10112000006800F000700028F2D1206AB0F5803F1E
:1011300007D11448406820F40030A16808431149E1
:101140004860D4E9080108430E49496821F4741144
:1011500008430C49486001200B490866FFF730FC42
:10116000054607E03DE0FFF72BFC401B022801D9B4
:1011700003200FE60348006800F000700028F2D05A
:101180002FE0000000100240000042428004424272
:1011900000700040002014490866FFF711FC054666
:1011A00006E0FFF70DFC401B022801D90320F1E502
:1011B0000E48006800F000700028F2D111E0E069EC
:1011C000012800D1E6E50948466806F48031206A26
:1011D000814204D106F47011606A814201D001207D
:1011E000D8E50020D6E50000000042420010024091
:1011F000042808D14FF0E021096941F004014FF0C3
:10120000E022116107E04FF0E021096921F00401BB
:101210004FF0E0221161704770B504462546681E04
:10122000B0F1807F01D301200FE0681E4FF0E02174
:1012300048610F214FF0FF3000F0C2FD00204FF059
:10124000E021886107200861002070BD70470146D9
:101250000022002391F8392091F83A3042EA030045
:10126000704700002DE9F0470446206805682068B3
:10127000C668206847694FF00008C14605F00F08AE
:10128000B8F1000F0AD105F0200038B106F02000B7
:1012900020B1204600F0DCFBBDE8F087B8F1000F7C
:1012A0006DD007F0010018B906F49070002866D0E0
:1012B00005F0010030B106F4807018B1E06B40F029
:1012C0000100E06305F0040030B107F0010018B13F
:1012D000E06B40F00200E06305F0020030B107F07F
:1012E000010018B1E06B40F00400E06305F0080075
:1012F00030B107F0010018B1E06B40F00800E06386
:10130000E06B68B305F0200028B106F0200010B1B2
:10131000204600F09DFB20684069C0F38019E06B17
:1013200000F0080010B9B9F1000F22D0204600F0FB
:101330006FFB2068406900F04000B0B12068406950
:1013400020F0400021684861606B50B11748616B24
:101350004863606BFFF7A6F810B1606B416B88477C
:101360000CE02046FFF772FF08E02046FFF76EFF13
:1013700004E02046FFF76AFF0020E0638CE705F0F9
:10138000800030B106F0800018B1204600F084FCE7
:1013900082E705F0400030B106F0400018B1204669
:1013A00000F046FB78E700BF76E70000FD19000873
:1013B00010B504460CB9012010BDA06900B100E0D1
:1013C00000BF94F8390028B9002084F8380020467E
:1013D00000F028F8242084F839002068C06820F440
:1013E00000502168C860204600F086FB2068006934
:1013F00020F49040216808612068406920F02A00AC
:10140000216848612068C06840F400502168C860C5
:101410000020E063202084F8390084F83A0000209E
:10142000CAE7000010B586B0044625492068884206
:1014300044D100BF2348806940F0040021498861FD
:101440000846806900F00400019000BF00BF00BFA3
:101450000846806940F4804088610846806900F44D
:101460008040019000BF00BF00BF0846806940F087
:10147000010088610846806900F00100019000BF0A
:1014800000BF481502900220039001200490032021
:10149000059002A90C48FFF7EDF84FF48060029028
:1014A0000020039002A90848FFF7E4F82520FFF781
:1014B000D4FA032211462520FFF7DFFA06B010BD4B
:1014C00000380140001002400008014010B50346FA
:1014D00093F83A0020282FD101B10AB9012010BD9C
:1014E00000BF93F83800012801D10220F7E701205E
:1014F00083F8380000BF99629A85DA850020D863A6
:10150000222083F83A0000BF002083F8380000BF93
:101510001868C06840F480701C68E0601868406912
:1015200040F001001C6860611868C06840F020004D
:101530001C68E0600020D2E70220D0E74B4A016837
:10154000914211D14A49098801F480610029F8D1FA
:101550004749098801F4007171B1464909780A299F
:1015600003D00021424A11807EE04149098841F4BC
:1015700080613F4A118077E03D4909884FF280122F
:10158000114001B33B4909780D2915D03949097833
:10159000374A127802F07F02374B99543449098850
:1015A000491C334A11801146097801F07F01322924
:1015B0005ADB0021118057E02D49098841F4007160
:1015C0002B4A118050E02A49098801F4006199B33F
:1015D00028490978613906292FD2DFE801F0030A8A
:1015E00011181F262249098841F48041204A1180A0
:1015F00027E01F49098841F480511D4A118020E0ED
:101600001B49098841F40041194A118019E0184921
:10161000098841F40051164A118012E014490988E2
:1016200041F48071124A11800BE01149098841F0A0
:1016300080010F4A118004E004E000210C4A11806F
:1016400000BF11E00B490978422903D00949097804
:10165000442906D10649098841F40061044A1180F1
:1016600002E00021024A118070470000003801406A
:101670006400002066000020600100202DE9F8438E
:1016800004460D4616461F464FF0000994F83900EF
:1016900020285CD105B116B90120BDE8F88300BF50
:1016A00094F83800012801D10220F6E7012084F8DF
:1016B000380000BF0020E063212084F83900FFF7E4
:1016C0007FF98146A684E6842BE0E08C401EE0840E
:1016D000A068B0F5805F16D14B46002280212046DD
:1016E000009700F00DFB08B10320D6E7A846B8F834
:1016F0000000C0F3080021684860206908B9AD1CEB
:101700000FE06D1C0DE04B46002280212046009723
:1017100000F0F6FA08B10320BFE715F8010B2168C5
:101720004860E08C0028D0D14B4600224021204662
:10173000009700F0E5FA08B10320AEE7202084F816
:10174000390000BF002084F8380000BFA5E7022060
:10175000A3E7704700BFFEE700B585B000BF1A4899
:10176000806940F00400184988610846806900F0EB
:101770000400009000BF00BF00BF0846806940F031
:10178000400088610846806900F04000009000BF7A
:1017900000BF01200190002002900220039003204E
:1017A000049001A90948FEF765FF1C200190002064
:1017B0000290012003900320049001A90448FEF741
:1017C00059FF05B000BD00000010024000080140B4
:1017D0000018014000B585B000BF1B48806940F08B
:1017E0000800194988610846806900F008000090E7
:1017F00000BF00BF00BF0846806940F0400088611C
:101800000846806900F04000009000BF00BF202023
:1018100001900120029003900320049001A90B483D
:10182000FEF728FF2020019001A90948FEF722FFBA
:10183000012220210548FFF7BDF80122202104489C
:10184000FFF7B8F805B000BD00100240000C0140E1
:101850000018014000BFFEE7704700000020054966
:101860000860486088600861C86048618861C86134
:1018700070470000400100202DE9F047254A5168DB
:10188000106801F0CDFA234988600846C1684FF01E
:10189000804001F0EFF981461E488168484601F01A
:1018A000B5FA80461B480169404601F08BF80746AF
:1018B0001848C169384601F0DDF90546154A9168B6
:1018C000906901F0D7F98046124AD168906801F01A
:1018D000A7FA81460F484169484601F0CBF907460F
:1018E000414601F06FF80646294601F06BF80446C0
:1018F00008494868214601F065F8064948600846ED
:10190000C068086108468068C86008464068BDE84D
:10191000F0870000400100207047000008B508492A
:101920000968C9084FF47A72B1FBF2F141430091A2
:1019300000BF00BF00994A1E00920029F9D108BDDE
:101940004C000020704730B58FB0054600240120C0
:101950000590000406900020079002200C90C1031F
:101960000D910E9505A8FFF711FA04460CB100BFC2
:10197000FEE70F20009002200190002002904FF41B
:10198000806003900020049002216846FFF7C8F8A9
:1019900004460CB100BFFEE70FB030BD10B5FFF735
:1019A00015F810BD1148006840F001000F490860AB
:1019B000084640680E4908400C49486008460068DF
:1019C0000C490840094908600846006820F4802056
:1019D00008600846406820F4FE0048604FF41F008D
:1019E0008860C80304490860704700000010024086
:1019F0000000FFF8FFFFF6FE08ED00E070B50546B9
:101A00006C6A0020E085E0842046FFF71FFC70BD73
:101A10000168C96821F490710268D1600168496960
:101A200021F0010102685161202180F83A107047CD
:101A300010B504462068C06820F040002168C860E6
:101A4000202084F839002046FFF783FE002010BDD7
:101A500070B5044694F83A0022284AD1A068B0F53F
:101A6000805F13D1A56A206940B920684068C0F33F
:101A700008002880A06A801CA06219E020684068E5
:101A8000C0B22880A06A401CA06211E0206938B969
:101A900020684068C1B2A26A501CA062117007E0C1
:101AA0002068406800F07F01A26A501CA06211709B
:101AB000E08D401E80B2E085C8B92068C06820F083
:101AC00020002168C8602068C06820F48070216808
:101AD000C8602068406920F001002168486120202A
:101AE00084F83A002046FFF729FD002070BD002051
:101AF000FCE70220FAE7000070B504462168096996
:101B000021F44051E2681143226811612269A16801
:101B10001143626941EA02052168C96841F20C6219
:101B2000914329432268D1602168496921F44071B9
:101B3000A269114322685161564A2168914254D1E9
:101B4000FFF7CAF800EBC00101EB001162689200D8
:101B5000B1FBF2F100EBC00202EB001263689B00E4
:101B6000B2FBF3F26423B2FBF3F202EBC20303EB2A
:101B70000212A1EB8201322202EB01116422B1FBBD
:101B8000F2F101F0F00100EBC00202EB0012636819
:101B90009B00B2FBF3F26423B2FBF3F201EB0212FF
:101BA00000EBC00101EB001163689B00B1FBF3F196
:101BB00000EBC00303EB00136668B600B3FBF6F35B
:101BC0006426B3FBF6F303EBC30606EB0313A1EBAA
:101BD0008301322303EB01116423B1FBF3F101F024
:101BE0000F0111442268916053E0FFF765F800EBA4
:101BF000C00101EB001162689200B1FBF2F100EB51
:101C0000C00202EB001263689B00B2FBF3F2642394
:101C1000B2FBF3F202EBC20303EB0212A1EB82016F
:101C2000322202EB01116422B1FBF2F101F0F0016A
:101C300000EBC00202EB001263689B00B2FBF3F200
:101C40006423B2FBF3F201EB021200EBC00101EBE3
:101C5000001163689B00B1FBF3F100EBC00303EBE1
:101C600000136668B600B3FBF6F36426B3FBF6F325
:101C700003EBC30606EB0313A1EB8301322303EB53
:101C800001116423B1FBF3F101F00F01114422684B
:101C9000916070BD00380140014691F8390021285B
:101CA0002CD18868B0F5805F0FD10A6A1088C0F324
:101CB00008000B685860086918B9086A801C086237
:101CC00009E0086A401C086205E00B6A581C0862BB
:101CD00018780B685860C88C401E80B2C88458B908
:101CE0000868C06820F080000B68D8600868C06889
:101CF00040F040000B68D860002070470220FCE7ED
:101D00002DE9F04104460D4617469846069E21E00F
:101D1000701CF8B12EB1FEF753FEA0EB0800B042E4
:101D200018D92068C06820F4D0702168C860206885
:101D3000406920F0010021684861202084F83900C2
:101D400084F83A0000BF002084F8380000BF032068
:101D5000BDE8F081206800682840A84201D1012038
:101D600000E00020B842D3D00020F1E710B50024F5
:101D70000C48FFF777FA00BF01E0641C00BF094878
:101D8000FFF765FA2028F8D100BF002401E0641CA9
:101D900000BF012204490348FFF798FB0028F6D151
:101DA00000BF10BD280200206600002000BFFEE733
:101DB00002480068C0F30220704700000CED00E00C
:101DC00010B5002804DB0A07130E054A135406E079
:101DD0000A07140E034A00F00F031B1FD45410BD52
:101DE00000E400E018ED00E000BF704710B50446C5
:101DF0000420FFF7FDF90148046010BD5C000020DD
:101E00008CB0FEF7EFFD4FF4E010FFF79CFD48208B
:101E1000FFF7ECFF4FF4E13000F0DEFAFFF7DAFCF9
:101E2000FFF79AFCC820FEF711FCFFF717FDB5E29B
:101E3000F848008800F4806000287DD0F5480078DC
:101E400000F07F040020F44908604FF47A70F349F1
:101E50000880F048008800F4004000286DD000227F
:101E6000EF491820FEF70CFA834600220121204694
:101E7000FEF722FAEB49486900F0A4FB0746EA4A5C
:101E8000EA4B00F0B7FBCDE90A01E64949684FF497
:101E90007A725143E34A926802EBC20303EB0212E7
:101EA00001EB8201DF4AD26802EB820201EB4201C0
:101EB000DC4A1269881800F085FBCDE90801DDE9EC
:101EC0000A2300F0D7FA054600F0A2FAD8490860C4
:101ED000D449C86A00F076FB0546D64AD64B00F0D6
:101EE00089FBCDE90801CF49886A00F06BFB054604
:101EF000D24AD34B00F07EFBCDE90401C949486AC0
:101F000000F060FB0746C84AC84B00F073FB05466B
:101F10000E46C449096AC34AD26902EB820201EB48
:101F2000420000F04FFB2A463346CDE9000100F0A5
:101F3000A1FACDE9020101E021E2FCE0DDE90423A0
:101F400000F098FACDE90601DDE9082300F092FAE5
:101F5000CDE90A0100F05CFAB5494860B149486C26
:101F600000F030FB0546B34AB34B00F043FBCDE92C
:101F70000801AC49086C00F025FB0546AF4AB04BA0
:101F800000F038FBCDE90401A649C86B00F01AFB4C
:101F90000746A54AA54B00F02DFBCDE90001A1495C
:101FA000896BA04A526B02EB820201EB420000F007
:101FB00009FB0546DDE9002300F05CFACDE90201EA
:101FC000DDE9042300F056FACDE90601DDE9082336
:101FD00000F050FACDE90A0100F01AFA944988603D
:101FE0009049C86D00F0EEFA0546924A924B00F017
:101FF00001FBCDE908018B49886D00F0E3FA054645
:102000008E4A8F4B00F0F6FACDE904018549486D00
:1020100000F0D8FA0546844A844B00F0EBFA0746F4
:1020200088468049096D7F4AD26C02EB820201EB3F
:10203000420000F0C7FA3A464346CDE9000100F0FD
:1020400019FACDE90201DDE9042300F013FACDE924
:102050000601DDE9082300F00DFACDE90A0100F0E0
:10206000D7F97349C8600846006876490860704827
:10207000406848616E48806888616D48C068C86182
:102080001B2C09D16748816E406E01EB0011654839
:10209000006E01EB002A0EE01C2C0CD16148C16ED1
:1020A000806E01EB00115F48406E01EB00215D483E
:1020B000006E01EB003AD34528D13223062262A1FB
:1020C0006348FFF7DBFA00BF614800680068C0F3AF
:1020D00080100028F8D001205E490860FFF7CCFB93
:1020E0005D4908605D495C48006800F0C3FD054635
:1020F00000F08CFD5A49086008460021026820461D
:10210000FEF7DAF800205749086013E03223062270
:1021100055A14F48FFF7B2FA00BF4D48006800686C
:10212000C0F380100028F8D000204A490860012040
:102130004C4908601FE13748008800F4804038B3FC
:1021400044480068A8B14A48008882B2322349490D
:102150003F48FFF793FA00BF3D4800680068C0F3AE
:1021600080100028F8D03B480068401E39490860BC
:1021700001E13223062240A13548FFF77FFA00BF74
:10218000334800680068C0F380100028F8D0F2E0FF
:102190002048008800F4005000283AD00125002291
:1021A00001212046FEF788F8E01E00221C49FEF7B8
:1021B00067F8611E1B4A52F82120A11E194B53F8E3
:1021C000211002EB0112E11E53F8211002EB012154
:1021D000884201D1E41E68E0201F00221049FEF76A
:1021E0004FF8611E0F4A52F82120A11E0D4B53F8E3
:1021F000211002EB0112E11E53F8211002EB012223
:10220000211F53F8211002EB0131884238D1241FDD
:102210004BE09AE0640000209481214200000020FD
:1022200060010020680000209A9999999999B93F16
:1022300030010020FCA9F1D24D62503F7B14AE4723
:10224000E17A843F40010020304230310D0A000025
:1022500028020020480000200800002000401C4602
:102260000400002094012342304230320D0A000065
:102270004400002010000020304230330D0A0000DE
:102280003223062246A14848FFF7F8F900BF464826
:1022900000680068C0F380100028F8D0032043498C
:1022A000086000204249088078E0611E414A52F8E7
:1022B000210000F0C7FC40490860A4F1020913E0C6
:1022C00005EB850045003B4951F8291001FB05F05D
:1022D00000F0B8FC064638480168304600F072FB52
:1022E00035490860A9F10109B9F1000FE8DC31486E
:1022F0000068022806D130480168002000F090FDF7
:102300002D4908602D492C48006800F0BDFB2A4982
:102310000860084600682A494860FFF7ADFA294975
:10232000086026492748006800F0A4FC064600F033
:102330006DFC254908600846002102682046FDF72B
:10234000BBFF03201949086015E01948008800F414
:10235000807040B1FFF782FA01201C49086000201C
:102360001249086007E01248007800F0800010B1C0
:1023700003200E49086000200D4908800DE0144834
:102380000088401E124908800120FEF75FF91048BE
:10239000008810B901200F49086000BF48E500001F
:1023A000304230340D0A000028020020480000208E
:1023B00064000020680000200C00002000401C4643
:1023C0004001002008000020040000209401234266
:1023D000000000209481214210B5044609480A49B2
:1023E00008600846446000218160C160016181612C
:1023F0000C214161FEF7DCFF012204490248FFF78E
:1024000065F810BD00380140280200206600002059
:1024100021F00042A2F16052B2F5801F01F00043AA
:1024200028BFD2F17F6C0BD95FEA001C43EAC202DD
:1024300042EB507018BF704728BF20F00100704772
:10244000B2F5801FBCBF184670474FEA410C1CF51F
:10245000001F02D2084600F0D4BC70B500F074F939
:1024600000000089FFF7F6BF4FF00040A0F58000A4
:102470007047000010B591EA030F48BF83F0004396
:1024800000F1BE81841A71EB030C05D2121943EBE3
:102490000C03001B61EB0C01DFF824E14FEA11543F
:1024A000A4EB135C1EEA430F18BF9EEA445F73D08F
:1024B00023EA0E03DCF1200E21EA045143F48013D9
:1024C00032D322FA0CFE10EB0E0023FA0CFE41EB85
:1024D0000E01CCF1200E03FA0EFE10EB0E0051F1AE
:1024E0000001B1F5801FCCF1200E32D201EB045176
:1024F00012FA0EF2BDE8104058BF7047401C38BFBA
:102500005FEA420218BF7047002814BF20F00100A4
:1025100041F100014FEA410313F5001F38BF704736
:10252000A1F1C04100F05EB9012A43EB0302ACF116
:10253000200CDCF11F0E32BF4FF0000E23FA0CF31B
:1025400010EB030041EB0451B4EB115FD0D0A1EBD1
:10255000045101F5801149085FEA300001EB045194
:102560000ED350F1000038BF12FA0EFE08D1BDE8BC
:102570001040C9E7401C38BF5FEA4202CAD1C3E736
:10258000BDE810404FEA410313F5001F38BF704704
:10259000A1F1C04100F026B99EEA445F08D011EADB
:1025A0005E0FBDE8104004BF01F0004100207047FD
:1025B000BDE8104070B500F0C7F800BF64FBBE3E38
:1025C0000000E0FF10F0004248BF4042B0FA80F344
:1025D00010FA03F10AD0C3F11D0303F580634FEA3B
:1025E000415002EB035202EBD12170474FF0000043
:1025F00070470000DFF848C170B51CEA111E1EBF0D
:102600001CEA13159EEA0C0F95EA0C0F00F06F8080
:1026100081EA030423EA4C134EEAD47E21EA4C11EA
:1026200041F4801143F48013AE44A1FB024CA0FBA3
:102630000365AEF17F7E361955EB0C05A1FB034C0B
:102640004CF10003A0FB021C16EB0C06654153F194
:102650000003094218BF46F0010613F4007F0BD1B6
:102660004FEA03314FEA0530340341EA155140EA9D
:1026700016506FF003020AE04FEAC3214FEAC5206B
:10268000F40241EA555140EA56506FF0020202EB63
:102690002E4201EB025585EACE710AD05FEA440C66
:1026A00018BF24F0004450F1000041F1000120EA7D
:1026B000D47040F2FE7C624500D270BDA84214BFC7
:1026C0004FF080444FF04044002E08BF0024BEF17C
:1026D000806FA8BFA1F1C041BDE8704080F2828048
:1026E0004FF0000001F1C04101F0004170479EEA47
:1026F0000C0F0CEA131518BF95EA0C0F06D04FF01B
:10270000000081EA030E0EF0004170BD00F01CF8DD
:102710008900013E00F007B800F009B84FEA430C09
:102720005FEA5C5C08D081EA030100F05BB84FEA25
:10273000410C5FEA5C5CF6D14FF000000149704744
:102740000000FF070000F87F0EF1020E2EF0030ECE
:102750005EF8046B364205D4012A43EB030515F5F8
:10276000001F12D8012841EB010C1CF5001F0CD8EA
:102770000ED14FEAD17C15F5001F0CEB4C0C0CF17F
:10278000020C08BF4CEBD37C04E04FF0080C01E0D6
:102790004FEAD37C0CEB4C0526FA05F606F007064B
:1027A000B6F1040C06D20EEB860CBDE870404CF07E
:1027B000010C6047DFE80CF0090B02024FF000410A
:1027C0004FF00000A1F5002170BD19461046012808
:1027D00051EB010418BFD4F5001484BF002001F0B0
:1027E000004170BD0808A0F500114FEA31017047A3
:1027F00010B591EA030F48BF83F000433FF542AEA6
:10280000841A71EB030C07D212198CF0004C43EBC5
:102810000C03001B61EB0C01DFF8A4E14FEA11543B
:10282000A4EB135C1EEA430F18BF9EEA445F00F05E
:10283000B08023EA6E03524221EA0451C3EB6E03D7
:1028400038BF5B1EDCF1200E25D322FA0CFE10EB04
:102850000E0043FA0CFE41EB0E01CCF1200E03FA00
:102860000EFE10EB0E0051F10001CCF1200E29D428
:1028700012FA0EF201EB0451BDE8104058BF704748
:10288000401C1CBFB2F1004F704700280CBF491C10
:1028900020F00100704712EB020E43EB030218BF59
:1028A0004FF0010E4EEA4202ACF1200CDCF11E0E9C
:1028B00054D943FA0CFE10EB0E0051F1FF31CCF16C
:1028C0001E0ED5D50EF1010E12FA0EFE404141EB5F
:1028D000010101EB445C5FEA5C5C10D910EBDE7037
:1028E00001EB045138BFBEF1004FBDE8104018BFE6
:1028F000704700280CBF491C20F00100704730D2FF
:102900004FEAD42C11F5001124F400641BD0B1FA65
:1029100081F20B3AA41AA41ED2F12003914030FA9E
:1029200003F31943904001EBCC71002C01EB0451EF
:10293000BDE81040A8BF704701F1C0414FF0000052
:1029400001F000417047B0FA80F310FA03F100D1B2
:1029500010BDE41A173C4805C90AE4E701EB04512D
:1029600010BD491001EB0451BDE810404FEA3000A2
:1029700002E04FF0000170474A0008BF0042F8D063
:10298000B2F5001F28BF704701F000414FF0000072
:1029900070479EEA445F07D011EA5E0FBDE8104021
:1029A00004BF002100207047BDE8104070B5FFF75C
:1029B000CBFE00BF40DFF63E83F00041104670477B
:1029C0000000E0FF90EA010F48BF81F0004100F1F4
:1029D0002E82421A3CBF801A89184FEAD0524FF01B
:1029E0007F4C1CEA410FA2EBD15318BF9CEA026F47
:1029F00000F03B804FF0004C4CEA00204CEA0121F3
:102A000021FA03FC10EB0C0C1ED202F1FF325FEA3C
:102A10001C2040EBC25038BF70471CF07F0F4FEABC
:102A2000400C18BFBCF17F4F38BF7047C3F1200383
:102A3000994008BF20F00100BCF17F4F38BF7047BC
:102A4000A0F1C04000F0DDB94FEA3C00000A40EBC5
:102A5000C25028BF1CF0FF0F4FEA400CE6D018BF51
:102A6000BCF17F4F38BF7047EAE79CEA026F05D0A0
:102A700010EA5C0F08BF00F00040704710B500F08E
:102A80007AF900BF64FBBE3E4FF47F0C1CEAD01203
:102A90001EBF1CEAD11392EA0C0F93EA0C0F00F050
:102AA000858090EA010F48BF42F4807240F4000C28
:102AB00041F400002CF07F4120F07F4000B58142BE
:102AC000A2EB03020FF2081CACEB504EC0F1000069
:102AD0009EF800E04FEA4E0E00FB0EFC38BF4900A6
:102AE0004FEA2C1C02F5FA020CFB0EF34FEACE1E45
:102AF0004FEA112C4FEAC1210EEB635E42EB2242FA
:102B00000EFB0CFC4FEA1C5300FB03114FEA112C87
:102B10004FEA01310EFB0CFC4FEADC4C00FB0C11C0
:102B2000C14228BF09184CEB03335DF804EB10EBEE
:102B3000410143EBC250B2F57C0F38BF704729D535
:102B400012F0F00F1CBF00F1C04000F000407047D1
:102B5000008182838485868788898B8C8D8E8F9176
:102B60009293959697999A9C9D9FA0A2A3A5A7A89A
:102B7000AAACAEB0B2B3B5B7B9BCBEC0C2C5C7C9C6
:102B8000CCCED1D4D7D9DCDFE2E6E9ECF0F3F7FA2A
:102B9000FE0000004FEA400C0CF1807CBCF17E4F3F
:102BA00028BF7047B0F1C04000F02BB990EA010F88
:102BB0000CEAD11348BF42F48072624538BF6345C6
:102BC00007D213F47F0F16D080EA010000F0004016
:102BD000704710B500F0CFF8097EFC3E00F005B854
:102BE00080EA010000F00040704780EA010000F038
:102BF000004000F006B912F47F0F04BF024870478E
:102C000080EA010000F0FDB80000C07F41000B0E1B
:102C1000D3F19E0208D950F400034FEA032323FAAC
:102C200002F048BF4042704710B500F0A4F800BF62
:102C300049922480002070476FF0004282EA200011
:102C40007047000010F0004148BF4042B0FA80F3E6
:102C500010FA03F2C3F19D030BD051EAC35101EB0B
:102C60001220530638BF704700F1010008BF20F062
:102C7000010070474FF47F0C1CEAD0121EBF1CEA03
:102C8000D11392EA0C0F93EA0C0F00F0478090EA00
:102C9000010F48BF42F480724FF0004C4CEA002014
:102CA0004CEA012102EB0302A0FB0113A2F5000292
:102CB000002918BF43F001035B0028BF4FEA33032C
:102CC00042EB22425FEA132C4CEBC2502EBFBCEB0E
:102CD000436FB2F57C0F70474FEA036CBCF1004FB5
:102CE00008BF20F00100B2F57C0F38BF70470BD54C
:102CF00082F0FF0212F5803FC8BF704700F1C0406C
:102D0000D8BF00F00040704700F5000C5FEA4C0CA3
:102D100048BF7047B0F1C04000F073B890EA010FAF
:102D20000CEAD11348BF42F48072624538BF634554
:102D300004D280EA010000F00040704710B500F0B6
:102D40001AF800BF8900013E00F007B800F009B88A
:102D50005FEA410C5FEA1C6C08D080EA010000F0D9
:102D600050B85FEA400C5FEA1C6CF6D14FF00040AF
:102D7000A0F5800070470EF1020E2EF0030E5EF8F3
:102D8000044B244204D44FEA4102B2F17F4F11D8E0
:102D90004FEA4003B3F17F4F0CD80ED14FEAD07CFD
:102DA000B2F17F4F0CEB4C0C0CF1020C08BF4CEB5A
:102DB000D17C04E04FF0080C01E04FEAD17C0CEB31
:102DC0004C0324FA03F404F00704B4F1040C06D213
:102DD0000EEB840CBDE810404CF0010C6047DFE8BE
:102DE0000CF0070802024FF00040A0F5800010BD73
:102DF0000846420018BFD2F1807288BF00F0004040
:102E000010BDFF2141EAD050C005704780F000405E
:102E100090EA010F7FF5DDAD81F0004100F007B8C9
:102E200090EA010F48BF81F000413FF5D2AD421A50
:102E300004D882F00042A0EB020011444FEAD052C5
:102E40004FF07F4C1CEA410FA2EBD15318BF9CEA14
:102E5000026F4AD04FF0004C4CEA00204CEA0121AE
:102E600021FA03FCB0EB0C0C0FD412F0FE0F36D09D
:102E70005FEA4C001DD5001240EBC25038BF7047CE
:102E80001CF03F0F18BF70470BE0A2F101025FEA90
:102E90001C2040EBC25038BF70471CF07F0F18BF9A
:102EA0007047C3F12003994014BF401E20F0010079
:102EB000704780084FEA122308BF7047B0FA80FCC1
:102EC000A2EB0C02CCF1280C60FA0CF093EA122F62
:102ED00004BF00EBC25070474FEAC3707047130A3B
:102EE0005FEADC1008BF7047F6E79CEA026F04D087
:102EF00010EA5C0F08BF0020704710B5FFF73BFFDA
:102F000040DFF63E81F00040704700000000000006
:102F10000000010203040607080900000000010286
:102F200003040000442F0008000000206800000097
:102F30006C010008AC2F0008680000206008000049
:102F400088010008000000000000000000000000F0
:102F5000000000003042303000000000000000009F
:102F60000000000000000000000000000000000061
:102F70000000000000000000000000000000000051
:102F80000000000000000000000000000000000041
:102F90000024F40000000000100000000100000008
:0C2FA00000000000000000000000000025
:0400000508000131BD
:00000001FF
