:020000040800F2
:1000000040080020CD010008AD17000819160008AF
:10001000A91700087D020008411C0008000000002C
:10002000000000000000000000000000D9170008D8
:100030006903000800000000AF170008311800082D
:10004000E7010008E7010008E7010008E7010008F0
:10005000E7010008E7010008E7010008E7010008E0
:10006000E7010008E7010008E7010008E7010008D0
:10007000E7010008E7010008E7010008E7010008C0
:10008000E7010008E7010008E7010008E7010008B0
:10009000E7010008E7010008E7010008E7010008A0
:1000A000E7010008E7010008E7010008E701000890
:1000B000E7010008E7010008E7010008E701000880
:1000C000E7010008E7010008E7010008E701000870
:1000D000E7010008011C0008E7010008E70100082B
:1000E000E7010008E7010008E7010008E701000850
:1000F000E7010008E7010008E7010008E701000840
:10010000E7010008E7010008E7010008E70100082F
:10011000E7010008E7010008E7010008E70100081F
:10012000E7010008E7010008E7010008E70100080F
:1001300000F002F800F03AF80AA090E8000C8244BF
:100140008344AAF10107DA4501D100F02FF8AFF29C
:10015000090EBAE80F0013F0010F18BFFB1A43F0A5
:1001600001031847902A0000B02A0000103A24BF6B
:1001700078C878C1FAD8520724BF30C830C144BF0C
:1001800004680C607047000000230024002500264E
:10019000103A28BF78C1FBD8520728BF30C148BFEA
:1001A0000B6070471FB51FBD10B510BD00F033F8D0
:1001B0001146FFF7F7FF01F06DFD00F051F803B4B1
:1001C000FFF7F2FF03BC01F059FD0000094880472A
:1001D00009480047FEE7FEE7FEE7FEE7FEE7FEE729
:1001E000FEE7FEE7FEE7FEE704480549054A064B41
:1001F0007047000039180008310100084002002053
:100200004008002040040020400400207047704750
:10021000704770477047754600F02CF8AE460500F1
:100220006946534620F00700854618B020B5FFF711
:10023000DBFFBDE820404FF000064FF000074FF015
:1002400000084FF0000B21F00701AC46ACE8C009F4
:10025000ACE8C009ACE8C009ACE8C0098D467047FD
:1002600010B50446AFF300802046BDE81040FFF70C
:10027000A6BF000000487047E001002000BFFEE775
:100280002DE9F04194B005460E465EB1002006E02F
:100290003249095C3039324B43F82010401CA842E7
:1002A000F6DB57E013461F1E01DBBC4601E0C7F139
:1002B000000C634600200AE00A2793FBF7FC07FBCB
:1002C0001C374DF820700A2793FBF7F3401C012BD5
:1002D000F2DA401C0A2790FBF7FC07FB1C073037BB
:1002E000DFF880C08CF805700A2806DB0A2790FB2F
:1002F000F7F730378CF8047004E03027DFF864C07B
:100300008CF80470002A05DA3227DFF858C08CF820
:10031000067004E03127DFF84CC08CF80670841EAC
:10032000072108E01DF824703037DFF838C00CF8DA
:100330000170641E491C002CF4DA0D27DFF824C07C
:100340000CF801704FF00A0CDFF818804F1C08F809
:1003500007C000BF14B0BDE8F0810000D800002045
:1003600050000020180000207047000070B50446BF
:10037000002594F82100022803D00420A063012561
:10038000C1E02068006820F00E0021680860206845
:10039000006820F00100216808605C4920688842FC
:1003A00052D95A4978392068884201D1012047E062
:1003B000564964392068884201D1102040E05349F1
:1003C00050392068884201D1801539E04F493C39C5
:1003D0002068884201D1801432E04C4928392068D5
:1003E000884202D14FF480302AE04849143920680D
:1003F000884202D14FF4801022E0444920688842AC
:1004000001D140041CE042492068884201D101200A
:1004100016E03F4914312068884201D110200FE0D6
:100420003B4928312068884201D1801508E03849CD
:100430003C312068884201D1801401E04FF48030C3
:100440003349091F086051E03049783920688842F3
:1004500001D1012047E02D4964392068884201D14B
:10046000102040E0294950392068884201D1801588
:1004700039E026493C392068884201D1801432E0B5
:10048000224928392068884202D14FF480302AE07E
:100490001E4914392068884202D14FF4801022E0AE
:1004A0001A492068884201D140041CE0184920689C
:1004B000884201D1012016E0154914312068884294
:1004C00001D110200FE0124928312068884201D163
:1004D000801508E00E493C312068884201D1801423
:1004E00001E04FF48030094980394860012084F8E8
:1004F000210000BF002084F8200000BF606B10B115
:100500002046616B8847284670BD0000800002408D
:100510000804024070B5044600F0B6F906462546C8
:10052000681C10B104480078054400BF00F0ACF925
:10053000801BA842FAD370BD400000202DE9F84787
:10054000024600239C467BE14FF0010808FA03F4C1
:10055000D1F8008008EA0400A0427DD1DFF8F4A2BF
:10056000D1F80480A8EB0A09D0453AD014DCB8F1E0
:10057000030F50D009DCB8F1000F31D0B8F1010FF2
:100580001CD0B8F1020F49D120E0B8F1110F18D0FA
:10059000B8F1120F42D11EE0B9F5881F25D006DC54
:1005A000B9F5803F20D0B9F5801F37D11AE0B9F5F1
:1005B000001F18D0B9F5041F30D117E0D1F80CC0D6
:1005C0002DE0D1F80C8008F1040C28E0D1F80C8063
:1005D00008F1080C23E0D1F80C8008F10C0C1EE0A7
:1005E00000BF00BF00BF00BF00BF00BFD1F8088040
:1005F000B8F1000F02D14FF0040C0BE0D1F80880E5
:10060000B8F1010F03D14FF0080C146102E04FF074
:10061000080C546103E04FF0000C00E000BF00BF85
:10062000FF2801D8904601E002F104084646FF2861
:1006300002D84FEA830803E0A3F108084FEA8808CC
:100640004746D6F800804FF00F0909FA07F928EA63
:1006500009080CFA07F900E07AE048EA0908C6F848
:100660000080D1F8048008F08058B8F1805F6FD125
:1006700000BFDFF8E481D8F8188048F00108DFF8FF
:10068000D891C9F81880C846D8F8188008F0010831
:10069000CDF8008000BF00BF4FEAB9384FEA930998
:1006A00058F829504FEA83784FEA18794FF00F082D
:1006B00008FA09F825EA0805DFF8A081424502D1C9
:1006C0004FF0000824E0DFF89881424502D14FF056
:1006D00001081DE0DFF88C81424502D14FF002088D
:1006E00016E0DFF88481424502D14FF003080FE0A5
:1006F000DFF87881424502D14FF0040808E0DFF8C6
:100700007081424502D14FF0050801E04FF0060824
:100710004FEA83794FEA197908FA09F848EA05059A
:10072000DFF850814FEA930948F82950D1F8048046
:1007300008F48038B8F5803F0BD1DFF83C81D8F859
:10074000008048EA0008DFF83091C9F800800AE02C
:1007500075E0DFF82481D8F8008028EA0008DFF887
:100760001891C9F80080D1F8048008F40038B8F571
:10077000003F0ED1DFF8008108F10408D8F80080AE
:1007800048EA0008DFF8F09009F10409C9F8008090
:100790000DE0DFF8E48008F10408D8F8008028EACA
:1007A0000008DFF8D49009F10409C9F80080D1F8F5
:1007B000048008F48018B8F5801F0ED1DFF8B880E7
:1007C00008F10808D8F8008048EA0008DFF8A89087
:1007D00009F10809C9F800800DE0DFF89C8008F1F4
:1007E0000808D8F8008028EA0008DFF88C9009F1A2
:1007F0000809C9F80080D1F8048008F40018B8F599
:10080000001F0ED1DFF8708008F10C08D8F80080C6
:1008100048EA0008DFF8609009F10C09C9F8008087
:100820000DE0DFF8548008F10C08D8F8008028EAC1
:100830000008DFF8449009F10C09C9F800805B1C3E
:10084000D1F8008028FA03F8B8F1000F7FF47CAEED
:10085000BDE8F887000011100010024000080140B8
:10086000000C01400010014000140140001801403C
:10087000001C014008000140000401400AB1016170
:1008800001E00B04036170470148006870470000F5
:1008900038000020034800680349097808440149EA
:1008A00008607047380000204000002010B508485C
:1008B000006840F0100006490860052000F080F84C
:1008C0000F2000F007F800F02BF8002010BD00000A
:1008D0000020024070B504460E4800784FF47A714B
:1008E000B1FBF0F00C490968B1FBF0F5284600F0C7
:1008F000F7FB08B1012070BD102C07D20022214661
:10090000501E00F01EF80548046001E00120F2E7E7
:100910000020F0E740000020340000203C000020D0
:10092000704701460846002809DB00F01F0301223A
:100930009A4043099B0003F1E023C3F8002100BF64
:1009400070472DE9F05F80460D461646002701F0FE
:1009500079F9074639462A46334601F00700C0F1C7
:10096000070ABAF1040F02D94FF0040A01E0C0F1FE
:10097000070AD14600F1040ABAF1070F02D24FF07C
:10098000000A01E0A0F1030AD4464FF0010A0AFA76
:1009900009FAAAF1010A0AEA020A0AFA0CFA4FF065
:1009A000010B0BFA0CFBABF1010B0BEA030B4AEA50
:1009B0000B042146404601F04DF9BDE8F09F0000D0
:1009C00000BF00F00702064B19684FF6FF031940FD
:1009D000044B0B4343EA0221014B196000BF7047EF
:1009E0000CED00E00000FA0570B504460D460CB9A8
:1009F000012070BD5A48006800F00700A8420ED2DE
:100A00005748006820F00700284355490860084609
:100A1000006800F00700A84201D00120E9E7207833
:100A200000F0020002281DD1207800F00400042804
:100A300005D14C48406840F4E0604A49486020785D
:100A400000F00800082805D14648406840F460508E
:100A5000444948604348406820F0F000A1680843DA
:100A600040494860207800F0010078B360680128B0
:100A700006D13C48006800F4003090B90120B8E786
:100A80006068022806D13748006800F0007040B95D
:100A90000120AEE73348006800F0020008B90120E9
:100AA000A7E73048406820F00300616808432D49FB
:100AB0004860FFF7E9FE064609E0FFF7E5FE801B08
:100AC00041F28831884202D9032092E707E02548A5
:100AD000406800F00C006168B0EB810FEDD1204858
:100AE000006800F00700A8420ED91D48006820F0F9
:100AF000070028431A4908600846006800F007000C
:100B0000A84201D0012074E7207800F004000428F6
:100B100007D11448406820F4E060E16808431149B7
:100B20004860207800F00800082808D10D48406887
:100B300020F46050216940EAC1000A49486000F091
:100B40003FF808494968C1F30311074A515CC8409E
:100B50000649086006480068FFF7BCFE002048E729
:100B60000020024000100240DC2B0008340000206E
:100B70003C0000200148006870470000340000205D
:100B800000B5FFF7F7FF04494968C1F30221034AA2
:100B9000515CC84000BD000000100240EC2B000872
:100BA00000B5FFF7E7FF04494968C1F3C221034AD2
:100BB000515CC84000BD000000100240EC2B000852
:100BC000F0B585B00FF26C0C9CE8E01001A8A0E82D
:100BD000E0101CA52D6800950021002200230024B0
:100BE0000020194D696801F00C05F5B1042D02D003
:100BF000082D19D101E0154819E001ADC1F3834674
:100C0000AC5D01F4803555B10F4D6D68C5F34045BD
:100C10001DF805200D4D6543B5FBF2F302E00C4DC8
:100C200004FB05F3184602E000BF084800BF00BF00
:100C300005B0F0BD02030405060708090A0B0C0DF8
:100C40000E0F1010010200000010024000127A0086
:100C500000093D00F8B504460CB90120F8BD207824
:100C600000F00100002878D0F848406800F00C003F
:100C700004280CD0F548406800F00C00082811D179
:100C8000F248406800F48030B0F5803F0AD1EF4868
:100C9000006800F4003000285FD0606800285CD154
:100CA0000120DBE700BF6068B0F5803F06D1E74870
:100CB000006840F48030E549086028E0606858B971
:100CC000E248006820F48030E04908600846006887
:100CD00020F4802008601AE06068B0F5A02F0BD1E6
:100CE000DA48006840F48020D84908600846006867
:100CF00040F4803008600AE0D448006820F4803076
:100D0000D24908600846006820F48020086000BFCF
:100D1000606888B1FFF7B8FD054606E0FFF7B4FD4F
:100D2000401B642801D9032098E7C848006800F4F4
:100D300000300028F2D010E0FFF7A6FD054606E0DF
:100D4000FFF7A2FD401B642801D9032086E7BF48B6
:100D5000006800F400300028F2D1207800F0020092
:100D6000022857D1B948406800F00C0050B1B7488C
:100D7000406800F00C00082818D1B448406800F41E
:100D8000803098B9B148006800F0020020B12069B5
:100D9000012801D0012061E7AC48006820F0F8008C
:100DA000616940EAC100A949086033E02069E8B1FF
:100DB0000120A7490860FFF767FD054606E0FFF739
:100DC00063FD401B022801D9032047E79F480068C4
:100DD00000F002000028F2D09C48006820F0F800E3
:100DE000616940EAC1009949086013E00020984910
:100DF0000860FFF749FD054606E0FFF745FD401B8B
:100E0000022801D9032029E79048006800F0020079
:100E10000028F2D1207800F0080008282DD1A06920
:100E2000B8B101208B490860FFF72EFD054606E0AA
:100E3000FFF72AFD401B022801D903200EE7834853
:100E4000406A00F002000028F2D0012000F0B0FC5F
:100E500013E000207F490860FFF716FD054606E015
:100E6000FFF712FD401B022801D90320F6E6774860
:100E7000406A00F002000028F2D1207800F004005F
:100E8000042873D100277148C06900F0805070B900
:100E900000BF6E48C06940F080506C49C861084688
:100EA000C06900F08050009000BF00BF01276A4871
:100EB000006800F48070B0B96748006840F4807042
:100EC00065490860FFF7E0FC054606E0FFF7DCFC3B
:100ED000401B642801D90320C0E65F48006800F485
:100EE00080700028F2D000BFE068012806D1574882
:100EF000006A40F001005549086227E0E06858B9EF
:100F00005248006A20F00100504908620846006A11
:100F100020F00400086219E0E06805280BD14B4876
:100F2000006A40F00400494908620846006A40F03F
:100F3000010008620AE04548006A20F001004349C8
:100F400008620846006A20F00400086200BFE068FA
:100F5000A0B1FFF799FC054609E0FFF795FC401B9F
:100F600041F28831884202D9032077E622E03748EF
:100F7000006A00F002000028EFD012E0FFF784FCC6
:100F8000054608E0FFF780FC401B41F288318842AB
:100F900001D9032062E62D48006A00F00200002813
:100FA000F0D1012F05D12948C06920F08050274990
:100FB000C86100BFE069C8B32448406800F00C0075
:100FC000082860D0E069022848D10020204908663E
:100FD000FFF75AFC054606E0FFF756FC401B0228C7
:100FE00001D903203AE61948006800F00070002893
:100FF000F2D1206AB0F5803F07D11448406820F450
:101000000030A168084311494860D4E90801084349
:101010000E49496821F4741108430C4948600120C5
:101020000B490866FFF730FC054607E03DE0FFF797
:101030002BFC401B022801D903200FE6034800685F
:1010400000F000700028F2D02FE0000000100240F5
:1010500000004242800442420070004000201449D7
:101060000866FFF711FC054606E0FFF70DFC401B84
:10107000022801D90320F1E50E48006800F0007055
:101080000028F2D111E0E069012800D1E6E5094825
:10109000466806F48031206A814204D106F470115A
:1010A000606A814201D00120D8E50020D6E5000029
:1010B0000000424200100240042808D14FF0E02115
:1010C000096941F004014FF0E022116107E04FF09F
:1010D000E021096921F004014FF0E022116170471D
:1010E00070B504462546681EB0F1807F01D301200B
:1010F0000FE0681E4FF0E02148610F214FF0FF30F4
:1011000000F0A8FD00204FF0E02188610720086171
:10111000002070BD704701460022002391F839205D
:1011200091F83A3042EA0300704700002DE9F04799
:101130000446206805682068C668206847694FF043
:101140000008C14605F00F08B8F1000F0AD105F0FC
:10115000200038B106F0200020B1204600F0C2FB8C
:10116000BDE8F087B8F1000F6DD007F0010018B9A5
:1011700006F49070002866D005F0010030B106F446
:10118000807018B1E06B40F00100E06305F00400EE
:1011900030B107F0010018B1E06B40F00200E063ED
:1011A00005F0020030B107F0010018B1E06B40F02B
:1011B0000400E06305F0080030B107F0010018B149
:1011C000E06B40F00800E063E06B68B305F02000DE
:1011D00028B106F0200010B1204600F083FB206803
:1011E0004069C0F38019E06B00F0080010B9B9F154
:1011F000000F22D0204600F055FB2068406900F027
:101200004000B0B12068406920F04000216848618A
:10121000606B50B11748616B4863606BFFF7A6F8CD
:1012200010B1606B416B88470CE02046FFF772FFFE
:1012300008E02046FFF76EFF04E02046FFF76AFF54
:101240000020E0638CE705F0800030B106F08000FC
:1012500018B1204600F06AFC82E705F0400030B18A
:1012600006F0400018B1204600F02CFB78E700BFE4
:1012700076E700009118000810B504460CB901206B
:1012800010BDA06900B100E000BF94F8390028B992
:10129000002084F83800204600F028F8242084F844
:1012A00039002068C06820F400502168C8602046DA
:1012B00000F06CFB2068006920F490402168086110
:1012C0002068406920F02A00216848612068C068D1
:1012D00040F400502168C8600020E063202084F8BA
:1012E000390084F83A000020CAE7000010B586B043
:1012F000044625492068884244D100BF23488069BC
:1013000040F00400214988610846806900F004002B
:10131000019000BF00BF00BF0846806940F48040D4
:1013200088610846806900F48040019000BF00BFDA
:1013300000BF0846806940F0010088610846806966
:1013400000F00100019000BF00BF4815029002208C
:101350000390012004900320059002A90C48FFF798
:10136000EDF84FF4806002900020039002A9084835
:10137000FFF7E4F82520FFF7D4FA032211462520D1
:10138000FFF7DFFA06B010BD003801400010024040
:101390000008014010B5034693F83A0020282FD1E9
:1013A00001B10AB9012010BD00BF93F8380001282F
:1013B00001D10220F7E7012083F8380000BF9962CD
:1013C0009A85DA850020D863222083F83A0000BF8E
:1013D000002083F8380000BF1868C06840F48070AF
:1013E0001C68E0601868406940F001001C6860619A
:1013F0001868C06840F020001C68E0600020D2E758
:101400000220D0E74A4A0168914211D1494909882E
:1014100001F480610029F8D14649098801F400717E
:1014200071B1454909780A2903D00021414A118048
:101430007DE04049098841F480613E4A118076E0B0
:101440003C49098801F4E34101B33B4909780D297E
:1014500015D039490978374A127802F07F02374BA4
:10146000995434490988491C324A11801146097837
:1014700001F07F0128295ADB0021118057E02D4916
:10148000098841F400712B4A118050E029490988EC
:1014900001F4006199B328490978613906292FD2EE
:1014A000DFE801F0030A11181F262249098841F4D8
:1014B0008041204A118027E01E49098841F480516B
:1014C0001C4A118020E01B49098841F40041194A57
:1014D000118019E01749098841F40051154A11801B
:1014E00012E01449098841F48071124A11800BE01E
:1014F0001049098841F080010E4A118004E004E09F
:1015000000210C4A118000BF11E00B4909784129E4
:1015100003D009490978442906D10649098841F4CC
:101520000061044A118002E00021024A11807047E4
:10153000003801404C0000204E000020D800002060
:101540002DE9F84304460D4616461F464FF00009A4
:1015500094F8390020285CD105B116B90120BDE806
:10156000F88300BF94F83800012801D10220F6E783
:10157000012084F8380000BF0020E063212084F8B7
:101580003900FFF781F98146A684E6842BE0E08CE0
:10159000401EE084A068B0F5805F16D14B46002263
:1015A00080212046009700F0F5FA08B10320D6E725
:1015B000A846B8F80000C0F3080021684860206918
:1015C00008B9AD1C0FE06D1C0DE04B4600228021D8
:1015D0002046009700F0DEFA08B10320BFE715F8B7
:1015E000010B21684860E08C0028D0D14B460022D6
:1015F00040212046009700F0CDFA08B10320AEE765
:10160000202084F8390000BF002084F8380000BF93
:10161000A5E70220A3E7704700BFFEE700B585B04D
:1016200000BF1A48806940F00400184988610846E4
:10163000806900F00400009000BF00BF00BF0846B2
:10164000806940F0400088610846806900F04000F1
:10165000009000BF00BF01200190002002900220F6
:1016600003900320049001A90948FEF767FF1C209E
:10167000019000200290012003900320049001A912
:101680000448FEF75BFF05B000BD000000100240FB
:10169000000801400018014000B585B000BF1B489C
:1016A000806940F00800194988610846806900F0A7
:1016B0000800009000BF00BF00BF0846806940F0EE
:1016C000400088610846806900F04000009000BF3B
:1016D00000BF20200190012002900390032004907D
:1016E00001A90B48FEF72AFF2020019001A9094813
:1016F000FEF724FF012220210548FFF7BFF8012251
:1017000020210448FFF7BAF805B000BD00100240E0
:10171000000C01400018014000B585B00020019088
:1017200002900390049000BF1D48806940F01000B3
:101730001B4988610846806900F01000009000BFD6
:1017400000BF00BF0846806940F02000886108465D
:10175000806900F02000009000BF00BF00BF084675
:10176000806940F0040088610846806900F0040048
:10177000009000BF00BF012251030A48FFF77EF826
:101780004FF40050019001200290002003900220AD
:10179000049001A90348FEF7D1FE05B000BD00008A
:1017A000001002400010014000BFFEE77047704784
:1017B00008B508490968C9084FF47A72B1FBF2F11B
:1017C0004143009100BF00BF00994A1E00920029CA
:1017D000F9D108BD34000020704730B58FB0054600
:1017E00000240120059000040690002007900220AC
:1017F0000C90C1030D910E9505A8FFF72BFA044636
:101800000CB100BFFEE70F200090022001900020E5
:1018100002904FF4806003900020049002216846FB
:10182000FFF7E2F804460CB100BFFEE70FB030BD91
:1018300010B5FFF72FF810BD1148006840F0010007
:101840000F490860084640680E4908400C49486046
:10185000084600680C4908400949086008460068C5
:1018600020F4802008600846406820F4FE004860AC
:101870004FF41F008860C8030449086070470000E7
:10188000001002400000FFF8FFFFF6FE08ED00E048
:1018900070B505466C6A0020E085E0842046FFF7BD
:1018A00039FC70BD0168C96821F490710268D1608B
:1018B0000168496921F0010102685161202180F825
:1018C0003A10704710B504462068C06820F0400008
:1018D0002168C860202084F839002046FFF79BFE6D
:1018E000002010BD70B5044694F83A0022284AD171
:1018F000A068B0F5805F13D1A56A206940B920685F
:101900004068C0F308002880A06A801CA06219E02B
:1019100020684068C0B22880A06A401CA06211E024
:10192000206938B920684068C1B2A26A501CA06220
:10193000117007E02068406800F07F01A26A501C27
:10194000A0621170E08D401E80B2E085C8B92068A9
:10195000C06820F020002168C8602068C06820F4BA
:1019600080702168C8602068406920F0010021680B
:101970004861202084F83A002046FFF743FD00200C
:1019800070BD0020FCE70220FAE7000070B50446B5
:101990002168096921F44051E2681143226811610C
:1019A0002269A1681143626941EA02052168C96898
:1019B00041F20C62914329432268D1602168496950
:1019C00021F44071A269114322685161564A21688D
:1019D000914254D1FFF7E4F800EBC00101EB001194
:1019E00062689200B1FBF2F100EBC00202EB001260
:1019F00063689B00B2FBF3F26423B2FBF3F202EBE9
:101A0000C20303EB0212A1EB8201322202EB0111AD
:101A10006422B1FBF2F101F0F00100EBC00202EB35
:101A2000001263689B00B2FBF3F26423B2FBF3F293
:101A300001EB021200EBC00101EB001163689B0097
:101A4000B1FBF3F100EBC00303EB00136668B600D3
:101A5000B3FBF6F36426B3FBF6F303EBC30606EB26
:101A60000313A1EB8301322303EB01116423B1FBC8
:101A7000F3F101F00F0111442268916053E0FFF788
:101A80007FF800EBC00101EB001162689200B1FB2E
:101A9000F2F100EBC00202EB001263689B00B2FBA4
:101AA000F3F26423B2FBF3F202EBC20303EB021284
:101AB000A1EB8201322202EB01116422B1FBF2F1AF
:101AC00001F0F00100EBC00202EB001263689B0022
:101AD000B2FBF3F26423B2FBF3F201EB021200EB70
:101AE000C00101EB001163689B00B1FBF3F100EB57
:101AF000C00303EB00136668B600B3FBF6F364267D
:101B0000B3FBF6F303EBC30606EB0313A1EB830170
:101B1000322303EB01116423B1FBF3F101F00F0158
:101B200011442268916070BD00380140014691F86F
:101B3000390021282CD18868B0F5805F0FD10A6A5E
:101B40001088C0F308000B685860086918B9086A63
:101B5000801C086209E0086A401C086205E00B6A04
:101B6000581C086218780B685860C88C401E80B2F8
:101B7000C88458B90868C06820F080000B68D86035
:101B80000868C06840F040000B68D86000207047CB
:101B90000220FCE72DE9F04104460D461746984621
:101BA000069E21E0701CF8B12EB1FEF76DFEA0EB91
:101BB0000800B04218D92068C06820F4D0702168AD
:101BC000C8602068406920F0010021684861202039
:101BD00084F8390084F83A0000BF002084F8380007
:101BE00000BF0320BDE8F081206800682840A842BB
:101BF00001D1012000E00020B842D3D00020F1E75D
:101C000010B500240C48FFF791FA00BF01E0641CF6
:101C100000BF0948FFF77FFA2028F8D100BF002451
:101C200001E0641C00BF012204490348FFF7B2FB36
:101C30000028F6D100BF10BDA00100204E000020FA
:101C400000BFFEE702480068C0F3022070470000B2
:101C50000CED00E010B5002804DB0A07130E054A5E
:101C6000135406E00A07140E034A00F00F031B1F6B
:101C7000D45410BD00E400E018ED00E000BF704750
:101C800010B504460420FFF717FA0148046010BDA0
:101C9000440000208EB0FEF709FE4FF4E010FFF77D
:101CA0009CFD4820FFF7ECFF4FF4E13000F05CFAB8
:101CB000FFF7F2FCFFF7B2FCC820FEF72BFCFFF7A2
:101CC0002BFD48E2FA48008800F4806000287CD0B0
:101CD00000224FF40051F748FEF7D0FD4FF47A7020
:101CE000F5490880F248007800F07F0AAAF1040A5A
:101CF000EF48008800F40040002867D0BAF1180FC0
:101D000065D1002201215046FEF7BAFAEB49486935
:101D100000F0EFFCEA4AEB4BCDE9040100F000FDD6
:101D2000CDE90801E549086900F0E3FCE64AE74B24
:101D3000CDE9000100F0F4FCCDE90401DF49496878
:101D400064225143DD4A926802EB820201EB4201B8
:101D5000DA4AD268881800F0CCFCCDE90201DDE94E
:101D6000042300F04FFACDE90601DDE9082300F075
:101D700049FACDE90A0100F013FAD5490860CF49C4
:101D8000C86A00F0B6FCCE4ACE4BCDE9040100F0A3
:101D9000C7FCCDE90801C949886A00F0AAFCCA4A13
:101DA000CA4BCDE9000100F0BBFCCDE90401C349F9
:101DB000C96964225143C14A126A02EB820201EBF3
:101DC0004201BE4A526A881802E0B4E111E1FEE025
:101DD00000F08FFCCDE90201DDE9042300F012FAE6
:101DE000CDE90601DDE9082300F00CFACDE90A018E
:101DF00000F0D6F9B6494860B049486C00F079FC6B
:101E0000AF4AB04BCDE9040100F08AFCCDE90801EE
:101E1000AA49086C00F06DFCAB4AAC4BCDE900015F
:101E200000F07EFCCDE90401A449496B64225143D2
:101E3000A24A926B02EB820201EB42019F4AD26BF3
:101E4000881800F056FCCDE90201DDE9042300F01A
:101E5000D9F9CDE90601DDE9082300F0D3F9CDE990
:101E60000A0100F09DF99A4988609449C86D00F014
:101E700040FC934A934BCDE9040100F051FCCDE9BD
:101E800008018E49886D00F034FC8F4A8F4BCDE9F4
:101E9000000100F045FCCDE904018849C96C6422C9
:101EA0005143864A126D02EB820201EB4201834AE2
:101EB000526D881800F01DFCCDE90201DDE9042314
:101EC00000F0A0F9CDE90601DDE9082300F09AF958
:101ED000CDE90A0100F064F97D49C860086800F0A6
:101EE00007FECDE90C017A49486800F001FE04467E
:101EF0000D467749886800F0FBFD06460F46744999
:101F0000C86800F0F5FD8046894600221346204649
:101F1000294600F083FB0DD1002213463046394696
:101F200000F07CFB06D1002213464046494600F0F3
:101F300075FB3AD03223062266A16848FFF700FB02
:101F400000BF664800680068C0F380100028F8D021
:101F500001206349087042464B463046394600F03E
:101F6000DFFB02460B46CDE908012046294600F07A
:101F7000FDF9CDE90A01DDE90C2300F0D1FB594A56
:101F800003C20022584B574903C900F0C9FBCDE9F1
:101F90000A0100F07FFB5549086008460268521CA0
:101FA00000215046FEF76CF9C1E03223062250A111
:101FB0004A48FFF7C5FA00BF484800680068C0F308
:101FC00080100028F8D0002045490870AFE0322387
:101FD000062247A14148FFF7B3FA00BF3F48006817
:101FE0000068C0F380100028F8D000203C49087039
:101FF0009DE02F48008800F4804028B338480078DE
:1020000098B13D48008882B232233C493348FFF7FB
:1020100097FA00BF314800680068C0F380100028BC
:10202000F8D000202E49087081E03223062234A126
:102030002A48FFF785FA00BF284800680068C0F307
:1020400080100028F8D072E01948008800F4005091
:1020500060B30122224B1A70BAF10A0F04DB0A2284
:102060009AFBF2F2254B1A710A229AFBF2F302FB59
:1020700013A23032214B5A710620002105E0224A7A
:10208000525C1E4B1A54401C491C0AF10402914236
:10209000F5DB0D22194B1A540A23DFF860C0421CED
:1020A0000CF80230821C144B1A6040E02EE0000055
:1020B0004C000020001001400000002050000020D3
:1020C0007B14AE47E17A843F9A9999999999B93FDF
:1020D000C8000020304230310D0A0000A00100206D
:1020E0002C000020080000200088C34004000020CD
:1020F000304230320D0A000030000020180000206D
:10210000304130330D0A0000D8000020124800880A
:1021100000F4807018B100201049087007E00E48E4
:10212000007800F0800010B101200C4908700020F8
:10213000094908800FE00A480088401E08490880C5
:102140000120FEF7E7F90648008820B90122510373
:102150000448FEF793FBB5E54C0000202C0000205E
:10216000000000200010014010B5044609480A494B
:1021700008600846446000218160C160016181619E
:102180000C214161FFF778F8012204490248FFF76A
:1021900001F910BD00380140A00100204E000020D0
:1021A00021F00042A2F16052B2F5801F01F000431D
:1021B00028BFD2F17F6C0BD95FEA001C43EAC20250
:1021C00042EB507018BF704728BF20F001007047E5
:1021D000B2F5801FBCBF184670474FEA410C1CF592
:1021E000001F02D2084600F0F4BC70B500F042FBBC
:1021F00000000089FFF7F6BF4FF00040A0F5800017
:102200007047000010B591EA030F48BF83F0004308
:1022100000F18C83841A71EB030C05D2121943EB85
:102220000C03001B61EB0C01DFF824E14FEA1154B1
:10223000A4EB135C1EEA430F18BF9EEA445F73D001
:1022400023EA0E03DCF1200E21EA045143F480134B
:1022500032D322FA0CFE10EB0E0023FA0CFE41EBF7
:102260000E01CCF1200E03FA0EFE10EB0E0051F120
:102270000001B1F5801FCCF1200E32D201EB0451E8
:1022800012FA0EF2BDE8104058BF7047401C38BF2C
:102290005FEA420218BF7047002814BF20F0010017
:1022A00041F100014FEA410313F5001F38BF7047A9
:1022B000A1F1C04100F02CBB012A43EB0302ACF1B9
:1022C000200CDCF11F0E32BF4FF0000E23FA0CF38E
:1022D00010EB030041EB0451B4EB115FD0D0A1EB44
:1022E000045101F5801149085FEA300001EB045107
:1022F0000ED350F1000038BF12FA0EFE08D1BDE82F
:102300001040C9E7401C38BF5FEA4202CAD1C3E7A8
:10231000BDE810404FEA410313F5001F38BF704776
:10232000A1F1C04100F0F4BA9EEA445F08D011EA7E
:102330005E0FBDE8104004BF01F00041002070476F
:10234000BDE8104070B500F095FA00BF64FBBE3EDA
:102350000000E0FF491058BFC1F140415B1058BF79
:10236000C3F140438B42EFF3008070472DE9C04139
:1023700030B4DFF8A0C23CEA111418BF3CEA1314D1
:1023800000F0EC8081EA03051CEA111444EAD574DC
:1023900018BF1CEA131500F0C780A4EB05044FF02A
:1023A000004545EAC12145EAC32341EA505143EAC9
:1023B000525304F17F74994204F500344FEAC0206F
:1023C0004FEAC22208BF904200F09C804FEA13659A
:1023D0000FF24016765D4FEA134506FB05F7C7F18D
:1023E000807706FB07F74FEAD737A7FB03687642EB
:1023F000C8F58038A7FB06CE38BFA8F1010807FB57
:1024000008E64FF0000EA6FB028CE6FB03CEDCF1E3
:10241000000CCEF1004E38BFAEF1010EA6FB0C58F9
:102420004FF000074FF00005E6FB0E87A1FB08C642
:10243000A0FB07CE16EB0E0645F10005E1FB076594
:1024400015F1E04E7EBFA4F580345FEA46066D418B
:1024500016F1800745F100054FEA17274FEA066697
:1024600047EA0567A6F1DE46B6F1805F4FEA15251B
:102470001FD9384624F0010C05EBC471BCF1FE6F86
:1024800001EB0C1102D8F0BCBDE8008124425CBF16
:1024900001F5801E9EEAC47F02D4F0BCBDE8008135
:1024A000244238D4F0BCA1F1C041BDE8004100F0A5
:1024B0002FBA4FEAD22242EA43524FEAD323A7FB74
:1024C00002864FEAD02040EA415007FB03661EEA2D
:1024D0000E0F4FEAD12105FB026658BFA6EB00564E
:1024E000B6EB00564FEA520E4EEAC37E18EB0E0EC4
:1024F00056EB530EBDD518EB02085E417F1C55F11B
:102500000005B6E74FF480154FF000074FF00006C6
:102510004FF00008ADE7F0BC4FF0000001F1C04102
:1025200001F00041BDE8008111EA0C1F0CEA13150F
:1025300000D00CE013EA0C1F00F025804FF00000E3
:10254000F0BC81EA030101F00041BDE80081F0BC6C
:10255000BDE8004181EA030100F0DAB9F0BCBDE852
:10256000004170B500F086F9097EFC3E00F007B826
:1025700081EA03014FF0000001F00041704781EA59
:10258000030100F0C5B9F0BCBDE800414FF0000008
:1025900021497047FFFDFBF9F7F5F4F2F0EEEDEBA2
:1025A000E9E8E6E4E3E1E0DEDDDBDAD8D7D5D4D351
:1025B000D1D0CFCDCCCBCAC8C7C6C5C4C2C1C0BF9D
:1025C000BEBDBCBBBAB9B8B7B6B5B4B3B2B1B0AFA3
:1025D000AEADACABAAA9A8A8A7A6A5A4A3A3A2A187
:1025E000A09F9F9E9D9C9C9B9A9999989797969542
:1025F00095949393929191908F8F8E8E8D8C8C8BDE
:102600008B8A898988888787868585848483838265
:10261000828181800000FF070000F87F51EA030CEF
:1026200017D41CF5801F58BFBCF5801F00F1068031
:10263000994218BF704708BF9042704707D711F5FD
:10264000801F58BF13F5801F19D4994270478942E3
:1026500070471CF5801F08D5BCF5801FF7D58B424D
:1026600018BF704708BF824270474FF4001C1CEB34
:10267000410F38BF1CEB430F01D28B42704770B53E
:1026800000F0F8F8922449004FF000514FF08053C9
:10269000FFF760BE4FEA41034FEA5353A3F580634F
:1026A000D3F11E03C8BFD3F1210C0CDD4FF0004263
:1026B00042EAC12242EA505232FA03FC8CEAE17C3F
:1026C000ACEBE1707047102BC4BF0020704703F5DE
:1026D000787CBCF1FF3F04D06FF0004282EA210019
:1026E000704770B500F0C6F849922480002070470A
:1026F000F2E710F0004248BF4042B0FA80F310FA0F
:1027000003F10AD0C3F11D0303F580634FEA415082
:1027100002EB035202EBD12170474FF000007047EB
:10272000DFF848C170B51CEA111E1EBF1CEA131564
:102730009EEA0C0F95EA0C0F00F06F8081EA03040B
:1027400023EA4C134EEAD47E21EA4C1141F4801165
:1027500043F48013AE44A1FB024CA0FB0365AEF131
:102760007F7E361955EB0C05A1FB034C4CF10003A1
:10277000A0FB021C16EB0C06654153F10003094255
:1027800018BF46F0010613F4007F0BD14FEA033166
:102790004FEA0530340341EA155140EA16506FF014
:1027A00003020AE04FEAC3214FEAC520F40241EADE
:1027B000555140EA56506FF0020202EB2E4201EBF7
:1027C000025585EACE710AD05FEA440C18BF24F0A6
:1027D000004450F1000041F1000120EAD47040F2C1
:1027E000FE7C624500D270BDA84214BF4FF0804409
:1027F0004FF04044002E08BF0024BEF1806FA8BFF8
:10280000A1F1C041BDE8704080F282804FF000002D
:1028100001F1C04101F0004170479EEA0C0F0CEA43
:10282000131518BF95EA0C0F06D04FF0000081EA8F
:10283000030E0EF0004170BD00F01CF88900013E4F
:1028400000F007B800F009B84FEA430C5FEA5C5C9F
:1028500008D081EA030100F05BB84FEA410C5FEA5F
:102860005C5CF6D14FF00000014970470000FF07A3
:102870000000F87F0EF1020E2EF0030E5EF8046BDE
:10288000364205D4012A43EB030515F5001F12D883
:10289000012841EB010C1CF5001F0CD80ED14FEAAA
:1028A000D17C15F5001F0CEB4C0C0CF1020C08BF91
:1028B0004CEBD37C04E04FF0080C01E04FEAD37CF2
:1028C0000CEB4C0526FA05F606F00706B6F1040CEB
:1028D00006D20EEB860CBDE870404CF0010C604750
:1028E000DFE80CF0090B02024FF000414FF000004E
:1028F000A1F5002170BD19461046012851EB0104D5
:1029000018BFD4F5001484BF002001F0004170BD51
:102910000808A0F500114FEA3101704710B591EA9F
:10292000030F48BF83F000433FF574AC841A71EB8A
:10293000030C07D212198CF0004C43EB0C03001B64
:1029400061EB0C01DFF8A4E14FEA1154A4EB135C36
:102950001EEA430F18BF9EEA445F00F0B08023EAEE
:102960006E03524221EA0451C3EB6E0338BF5B1E73
:10297000DCF1200E25D322FA0CFE10EB0E0043FAF8
:102980000CFE41EB0E01CCF1200E03FA0EFE10EB13
:102990000E0051F10001CCF1200E29D412FA0EF2F2
:1029A00001EB0451BDE8104058BF7047401C1CBFEC
:1029B000B2F1004F704700280CBF491C20F0010005
:1029C000704712EB020E43EB030218BF4FF0010EEB
:1029D0004EEA4202ACF1200CDCF11E0E54D943FA4F
:1029E0000CFE10EB0E0051F1FF31CCF11E0ED5D5CF
:1029F0000EF1010E12FA0EFE404141EB010101EB16
:102A0000445C5FEA5C5C10D910EBDE7001EB0451B2
:102A100038BFBEF1004FBDE8104018BF7047002816
:102A20000CBF491C20F00100704730D24FEAD42C73
:102A300011F5001124F400641BD0B1FA81F20B3AB5
:102A4000A41AA41ED2F12003914030FA03F31943D3
:102A5000904001EBCC71002C01EB0451BDE810401B
:102A6000A8BF704701F1C0414FF0000001F00041E4
:102A70007047B0FA80F310FA03F100D110BDE41AE8
:102A8000173C4805C90AE4E701EB045110BD4910A1
:102A900001EB0451BDE810404FEA300002E04FF076
:102AA000000170474A0008BF0042F8D0B2F5001F8D
:102AB00028BF704701F000414FF0000070479EEAC8
:102AC000445F07D011EA5E0FBDE8104004BF00214B
:102AD00000207047BDE8104070B5FFF7CBFE00BF87
:102AE00040DFF63E83F00041104670470000E0FFF3
:102AF00043004FEAD30C4FEA3C0C43401FBF400752
:102B00000CF1605113F0FE4F70471CF0006F03D1C1
:102B100000200CF0004170470CF0004343EA507075
:102B200010B540EACC0000F00EF800BF00000092A3
:102B30004FEA0001FFF7ECBE4FF000414FF00000FC
:102B4000A1F5002170470EF1020E2EF0030E5EF883
:102B5000044B244204D44FEA4102B2F17F4F11D812
:102B60004FEA4003B3F17F4F0CD80ED14FEAD07C2F
:102B7000B2F17F4F0CEB4C0C0CF1020C08BF4CEB8C
:102B8000D17C04E04FF0080C01E04FEAD17C0CEB63
:102B90004C0324FA03F404F00704B4F1040C06D245
:102BA0000EEB840CBDE810404CF0010C6047DFE8F0
:102BB0000CF0070802024FF00040A0F5800010BDA5
:102BC0000846420018BFD2F1807288BF00F0004072
:102BD00010BDFF2141EAD050C00570470000000041
:102BE00000000000010203040607080900000000BD
:102BF00001020304142C0008000000205000000013
:102C00006C010008642C000850000020F007000050
:102C10008801000800000000000000000000000023
:102C200000000000000000000000000030413030D3
:102C30003000000000000000000000000000000064
:102C400000000000000000000024F400000000006C
:102C50001000000001000000000000000000000063
:042C60000000000070
:0400000508000131BD
:00000001FF
